:020000040800F2
:1000000000400020410200089D020008658E0008A3
:100010009D0200089D0200089D02000800000000EB
:100020000000000000000000000000009D02000829
:100030009D020008000000009D0200089D020008CB
:100040009D0200089D0200089D0200089D02000814
:100050009D0200089D0200089D0200089D02000804
:100060009D0200089D0200089D0200089D020008F4
:100070009D0200089D0200089D0200089D020008E4
:100080009D0200089D0200089D0200089D020008D4
:100090009D0200089D0200089D0200089D020008C4
:1000A0009D0200089D0200089D0200089D020008B4
:1000B0009D0200089D0200089D0200089D020008A4
:1000C0009D0200089D0200089D0200089D02000894
:1000D0009D0200089D0200089D0200089D02000884
:1000E0009D0200089D0200089D020008000000001B
:1000F0000000000000000000000000000000000000
:1001000000000000000000009D0200089D020008A1
:100110009D0200089D0200089D0200089D02000843
:100120009D0200089D0200089D0200089D02000833
:100130009D0200089D0200089D0200089D02000823
:100140009D0200089D0200089D0200089D02000813
:100150005FF808F1844641EA000313F0030349D134
:10016000403A23D30B6803604B6843608B6883601D
:10017000CB68C3600B6903614B6943618B69836121
:10018000CB69C3610B6A03624B6A43628B6A836209
:10019000CB6AC3620B6B03634B6B43638B6B8363F1
:1001A000CB6BC36340304031403ADBD230320BD3AB
:1001B0000B6803604B6843608B688360CB68C360E7
:1001C00010301031103AF3D20C3205D351F8043B01
:1001D00040F8043B043AF9D2043208D0D2071CBFDD
:1001E00011F8013B00F8013B01D30B880380604606
:1001F000704700BF082A13D38B07B1D010F0030358
:10020000AED0C3F10403D21ADB071CBF11F8013BC7
:1002100000F8013BA4D331F8023B20F8023B9FE7F2
:10022000043AD9D3013A11F8013B00F8013BF9D265
:100230000B7803704B7843708B78837060467047FF
:1002400080B582B000AF104B7B60104B3B6007E085
:100250003B681A1D3A607A68111D796012681A604D
:100260003B680B4A9342F3D30A480B494FF0000214
:100270008842B8BF40F8042BFADB07F04DFE08F0C7
:10028000A7FD0837BD4680BD06910008004000204C
:100290001C4000201C4000209CBB002080B400AF0C
:1002A000FEE700BF80B483B000AF7860054A7B688A
:1002B00043F0BF6343F40033D3600C37BD465DF8B1
:1002C000047B704700ED00E080B487B000AF786039
:1002D00000237B6100233B610F23FB607B68DB789D
:1002E000002B3AD0274BDB68DB4303F4E0631B0AA7
:1002F0007B617B69C3F104033B617B69FA6822FA85
:1003000003F3FB607B685B781A463B6902FA03F3F0
:100310007B617B689B781A46FB6813407A691343BC
:100320007B617B691B017B61174A7B681B7879695C
:10033000C9B213440A4683F80023134A7B681B782A
:100340005B09DBB218467B681B7803F01F030121B1
:1003500001FA03F342F820300FE00B497B681B7869
:100360005B09DBB218467B681B7803F01F03012290
:100370009A4000F1200341F823201C37BD465DF868
:10038000047B704700ED00E000E100E080B483B042
:1003900000AF78604FF0804348F69F421A854FF0D7
:1003A00080427B689BB25B009BB293854FF0804399
:1003B00001229A824FF0804309221A8000BF4FF039
:1003C00080431B889BB203F00103002BF7D10C374D
:1003D000BD465DF8047B704780B489B000AF78609B
:1003E00039600023FB6100233B610023BB610023D4
:1003F000FB6000237B610023BB603B68DB7803F07C
:100400000F03FB613B68DB7803F01003002B05D082
:100410003B689B781A46FB691343FB613B681B886A
:10042000DBB2002B44D07B681B687B610023BB617F
:1004300038E0BB69012202FA03F3FB603B681B88CA
:100440001A46FB6813403B613A69FB689A4226D121
:10045000BB699B00FB60FB680F2202FA03F3BB60E1
:10046000BB68DB437A6913407B61FB68FA6902FA77
:1004700003F37A6913437B613B68DB78282B05D152
:10048000BB6901229A407B685A6108E03B68DB78CF
:10049000482B04D1BB6901229A407B681A61BB6971
:1004A0000133BB61BB69072BC3D97B687A691A60CA
:1004B0003B681B88FF2B4AD97B685B687B61002304
:1004C000BB613EE0BB6908331A4601239340FB60E1
:1004D0003B681B881A46FB6813403B613A69FB681E
:1004E0009A422BD1BB699B00FB60FB680F2202FA8A
:1004F00003F3BB60BB68DB437A6913407B61FB6835
:10050000FA6902FA03F37A6913437B613B68DB788B
:10051000282B07D1BB6908331A46012303FA02F2DC
:100520007B685A613B68DB78482B07D1BB6908338D
:100530001A46012303FA02F27B681A61BB69013390
:10054000BB61BB69072BBDD97B687A695A602437C8
:10055000BD465DF8047B704780B483B000AF78601F
:100560000B467B807A887B681A610C37BD465DF844
:10057000047B704780B483B000AF78600B467B800B
:100580007A887B685A610C37BD465DF8047B7047FA
:1005900080B483B000AF7860034A7B6813600C3787
:1005A000BD465DF8047B7047DC00204280B48BB010
:1005B00000AF786000233B6200237B620023FB6175
:1005C0000023BB6100237B6100233B610023FB60B0
:1005D0000023BB60624B5B6803F00C033B623B6A29
:1005E000042B07D0082B09D0002B5ED17B685D4A15
:1005F0001A605EE07B685C4A1A605AE0584B5B68A0
:1006000003F470137B62564B5B6803F48033FB6129
:100610007B6A9B0C7B627B6A0D2B03D07B6A023367
:100620007B6201E006237B62FB69002B06D17B6ABB
:100630004E4A02FB03F27B681A6035E0484BDB6AE6
:1006400003F480337B61464BDB6A03F00F03013315
:100650003B617B69002B09D1434A3B69B2FBF3F351
:100660007A6A02FB03F27B681A601DE03C4BDB6A8E
:1006700003F0F0031B090133FB60394BDB6A03F421
:1006800070631B0A0233BB60374AFB68B2FBF3F3AB
:10069000BA6802FB03F23B69B2FBF3F37A6A02FB2E
:1006A00003F27B681A6004E003E07B682D4A1A605D
:1006B00000BF2B4B5B6803F0F0033B623B6A1B09F6
:1006C0003B622B4A3B6A13441B78DBB2BB617B68FD
:1006D0001A68BB69DA407B685A60214B5B6803F497
:1006E000E0633B623B6A1B0A3B62214A3B6A13445C
:1006F0001B78DBB2BB617B685A68BB69DA407B68F8
:100700009A60174B5B6803F460533B623B6ADB0AF9
:100710003B62174A3B6A13441B78DBB2BB617B68C0
:100720005A68BB69DA407B68DA600D4B5B6803F49A
:1007300040433B623B6A9B0B3B620E4A3B6A13445D
:100740001B78DBB2BB617B68DA68BB69B2FBF3F292
:100750007B681A612C37BD465DF8047B704700BF8B
:100760000010024000127A0040787D0100093D002F
:10077000004000201040002080B483B000AF7860BB
:100780000B46FB70FB78002B06D00949084B5A69D1
:100790007B6813434B6106E00549054B5A697B684A
:1007A000DB4313404B610C37BD465DF8047B70475B
:1007B0000010024080B483B000AF78600B46FB703D
:1007C000FB78002B06D00949084B9A697B681343D4
:1007D0008B6106E00549054B9A697B68DB43134052
:1007E0008B610C37BD465DF8047B704700100240FA
:1007F00080B483B000AF78600B46FB70FB78002BB1
:1008000006D00949084BDA697B681343CB6106E0DF
:100810000549054BDA697B68DB431340CB610C3734
:10082000BD465DF8047B70470010024080B483B081
:1008300000AF78600B46FB70FB78002B06D00949AF
:10084000084B9A6A7B6813438B6206E00549054BA7
:100850009A6A7B68DB4313408B620C37BD465DF8B8
:10086000047B70470010024080B584B000AF786010
:100870000DE07B68FB607B681B687B60FB685B68E6
:10088000184603F03FF80720F96802F0E5FC7B68A2
:10089000002BEED11037BD4680BD00BF80B582B0C1
:1008A00000AF786041497A6813469B0013449B006F
:1008B0000B441B68002B13D03C497A6813469B00FD
:1008C00013449B000B441B681846FFF7CDFF3749C4
:1008D0007A6813469B0013449B000B4400221A6065
:1008E00032497A6813469B0013449B000B44103333
:1008F00000229A702D497A6813469B0013449B008E
:100900000B4410330022DA7028497A6813469B00A2
:1009100013449B000B44083300221A6023497A6871
:1009200013469B0013449B000B4400225A601F494E
:100930007A6813469B0013449B000B440833002243
:100940001A711A497A6813469B0013449B000B44A2
:10095000093300221A7115497A6813469B00134423
:100960009B000B440A3300221A7110497A6813461F
:100970009B0013449B000B440B3300221A710B495C
:100980007A6813469B0013449B000B440C330022EF
:100990001A7106497A6813469B0013449B000B4466
:1009A0000D3300221A710837BD4680BD1C4000205F
:1009B00080B582B000AF0023FB7163E0FA7934495F
:1009C00013469B0013449B000B4410339B78BB7170
:1009D000BB79002B53D0FA792D4913469B00134461
:1009E0009B000B441033DB780133D8B228491346FF
:1009F0009B0013449B000B4410330246DA70FA79D3
:100A0000234913469B0013449B000B441033DB78AF
:100A1000EF2B15D8FA791E4913469B0013449B000F
:100A20000B4410339B78012B0FD1FA7918491346E8
:100A30009B0013449B000B441033DB78012B04D93B
:100A4000FB791846FFF72AFF14E0FA79104913469C
:100A50009B0013449B000B4410339B78032B09D15C
:100A6000FA790B4913469B0013449B000B44103347
:100A700002229A70FA7913469B0013449B00FB797B
:100A80000133FB71FB79092B98D90837BD4680BD2E
:100A90001C40002080B586B000AF78600B46FB702C
:100AA0000A23FB750A23BB750A237B7500233B755C
:100AB0000023FB740023BB740A237B7400233B7464
:100AC00000233B7584E03A7D704913469B00134434
:100AD0009B000B4410339B78FB7397F915300A2B5E
:100AE00005D1FB7B002B02D13B7D7B756DE0FB7B51
:100AF000002B6AD07B68002B0DD07B6819683A7D8B
:100B0000624813469B0013449B0003445B68994270
:100B100001D13B7DB4E0FB7B012B3BD13A7D5B49AE
:100B200013469B0013449B000B441B68002B18D0FA
:100B30003A7D564913469B0013449B000B441033E7
:100B4000DB783A7C9A4240D83B7D7B743A7D4F49B2
:100B500013469B0013449B000B441033DB783B741B
:100B600033E03A7D494913469B0013449B000B44F4
:100B70001033DB78FA7C9A4227D83B7DFB753A7DAF
:100B8000424913469B0013449B000B441033DB780F
:100B9000FB741AE0FB7B012B17D93A7D3B491346C6
:100BA0009B0013449B000B441033DB78BA7C9A42C1
:100BB0000BD83B7DBB753A7D344913469B001344EB
:100BC0009B000B441033DB78BB743B7D01333B75DA
:100BD0003B7D092B7FF677AFFB7803F00203002BF8
:100BE00008D197F915300A2B06D1FB7803F00103E1
:100BF000002B01D1FF2343E097F91530092B02DCCC
:100C00007B7D3B751FE097F91630092B07DCBB7D18
:100C10003B753A7D13469B0013449B000FE097F908
:100C20001730092B02DCFB7D3B7508E097F911308A
:100C3000092B02DC7B7C3B7501E0FF2320E03B7D40
:100C40001846FFF72BFE3A7D13469B0013449B008A
:100C50007B68002B09D03A7D7B6819680B481346E6
:100C60009B0013449B00034459603A7D0749134697
:100C70009B0013449B000B4410330022DA703B7D31
:100C80005BB218461837BD4680BD00BF1C4000202F
:100C900080B586B000AFF860B9607A603B60BB6831
:100CA0005B687B617B69184639680622FFF752FA58
:100CB0007B690633184679680622FFF74BFA7B6991
:100CC000002242F008021A7300225A73FB689B69E3
:100CD000F868B9689847034618461837BD4680BD7E
:100CE00080B588B000AFF860B9607A60FB70BB680F
:100CF000002B12D0BB681B68002B0ED0BB681B6892
:100D00001846F96801F0E6F90346002B05D1BB68E7
:100D10001B6803F0F003E02B01D1F22370E0FB78B5
:100D2000B8681946FFF7B6FE0346FB7797F91F3000
:100D3000002B01DAFB7F63E097F91F20334913464C
:100D40009B0013449B000B44103302229A7097F9C6
:100D50001F202E4913469B0013449B000B4408336D
:100D6000FA681A6097F91F2013469B0013449B00F2
:100D70000833264A134404337A681168196092884C
:100D80009A8097F91F20214913469B0013449B002A
:100D90000B4410330022DA7026E097F91F201B491C
:100DA00013469B0013449B000B441B68BB6197F9DF
:100DB0001F20BB691968154813469B0013449B000C
:100DC00003441960BB695B687B610720B96902F065
:100DD00043FAFB682333F86879691A467B68FFF7A2
:100DE00057FF786902F08EFD97F91F2007491346D7
:100DF0009B0013449B000B441B68002BCDD10023A8
:100E00005BB218462037BD4680BD00BF1C400020A5
:100E100080B586B000AF786039607B68002B00D168
:100E20001CE03B685B687B617B690E333B613B691F
:100E3000DB68FB60FA687B685B685A407B689B688C
:100E40001340002B00D009E07B69063307F10C0248
:100E5000786811461A460223FFF742FF1837BD464D
:100E600080BD00BF80B58AB000AFF860B9607A601D
:100E7000FB68002B00D1D7E07B685B89292B0DD85C
:100E80006B4B5B6C01336A4A5364694BDB6B013318
:100E9000674AD363786802F035FDC5E07B685B681C
:100EA0003B623B6A0E33FB61FB691B889BB2B3F567
:100EB000807F0CD1FB691B79062B08D1FB695B791C
:100EC000042B04D1FB695B889BB2082B0DD0584BD7
:100ED0001B6D0133564A1365554BDB6B0133544A86
:100EE000D363786802F00EFD9EE0514B5B6B0133DB
:100EF0004F4A5363FB690E3307F118021046194637
:100F00000422FFF727F9FB69183307F11402104692
:100F100019460422FFF71EF9FB680433002B03D0A7
:100F2000FB685B68002B03D1002387F8273009E0BA
:100F30007A69FB685B689A420CBF01230023DBB22D
:100F400087F82730FB6903F1080297F82730002B58
:100F500001D0012300E0022307F11801F868FFF730
:100F6000BFFEFB69DB889BB2B3F5807F03D0B3F58E
:100F7000007F55D04EE097F82730002B40D002205C
:100F800001F070FD03461A46FB69DA80FB6903F144
:100F90001802FB690E33104619460422FFF7DAF8EF
:100FA000FB6903F10E02FB68043310461946042264
:100FB000FFF7D0F8FB6903F11202FB690833104612
:100FC00019460622FFF7C6F83A6AFB69083310464D
:100FD00019460622FFF7BEF8FB6908331846B968C0
:100FE0000622FFF7B7F83B6A06331846B9680622AF
:100FF000FFF7B0F8FB689B69F8687968984708E0E4
:10100000FB680433002B03D0FB685B68002B00D126
:1010100000BF06E0064B9B6D0133054A936500E077
:1010200000BF786802F06EFC2837BD4680BD00BF67
:10103000D094002090B585B000AFF860B960134639
:10104000FB71FA7913469B0013449B00FA792249FD
:1010500013469B0013449B000B4410339B78022BD8
:1010600023D1FA791C4913469B0013449B000B447F
:101070001033DB78E32B18D9FA7913469B0013441D
:101080009B00154A13440433F868194600F0BEFA71
:101090000346002B09D1FA790F4913469B001344EC
:1010A0009B000B44103303229A70FB6803F1230466
:1010B000FA7913469B0013449B000833064A1344F5
:1010C0000433F868B9682246FFF7E2FD0346184684
:1010D0001437BD4690BD00BF1C40002080B588B0CD
:1010E00000AFF860B9607A607B68BB61B8680E21B8
:1010F00002F098FB0346002B06D05E4B5B69013380
:101100005C4A5361FE23B0E07B681B681846F968AF
:1011100000F0E0FF0346002B02D0574BFB619BE041
:101120007B681B6803F0F003E02B16D101233B74AE
:1011300000237B745E23BB747B6801331B7803F050
:101140007F03DBB2FB747B689B783B757B68DB7845
:101150007B7507F11003FB617EE07B681A68FB6812
:101160005B685A40FB689B681340002B14D07B6877
:101170001B689BB24FF6A96293420DD0FB680C33FB
:10118000002B07D0FB68DB68002B03D0FB680C3317
:10119000BB6101E0FC2368E0384B1B781946384AF4
:1011A0000B469B000B449B00134410339B78012B90
:1011B0001BD9BB691A68314B1B7818463049034666
:1011C0009B0003449B000B445B689A420DD1294B62
:1011D000DB6D0133274AD365284B1B78F868B96863
:1011E0001A46FFF727FF03463FE00023FB7528E080
:1011F00097F91720224913469B0013449B000B4488
:1012000010339B78012B17D9BB69196897F9172000
:101210001B4813469B0013449B0003445B689942A0
:101220000AD1FA7D154B1A70FB7DF868B9681A4629
:10123000FFF700FF034618E0FB7DDBB20133DBB2B2
:10124000FB7597F91730092BD2DDF868B969BA68D0
:1012500000F018F8034608E0FB682333F868B96823
:101260001A46FB69FFF714FD03465BB218462037A8
:10127000BD4680BDD0940020788F0008E440002057
:101280001C40002080B58CB000AFF860B9607A6077
:10129000FB682333FB61FF2387F82F30BB681B6893
:1012A0001846F96800F016FF0346002B0CD1BB6806
:1012B0001B6803F0F003E02B06D0BB68002B03D0C3
:1012C000BB681B68002B01D1F2230EE1B868012135
:1012D000FFF7E0FB0346FB7697F91B30002B09DA9A
:1012E0007B68002B04D0834B9B6C0133814A936451
:1012F000FB7EFAE097F91B207F4913469B001344BD
:101300009B000B4410339B78002B0AD197F91B20CC
:10131000794913469B0013449B000B441033012270
:101320009A7097F91B20744913469B0013449B0045
:101330000B4410339B78012B05D097F91B201346E3
:101340009B0013449B0097F91B206B4913469B009D
:1013500013449B000B4410339B78012B02D07B6815
:10136000002B0CD1F868B96800F050F9034687F8F3
:101370002F307B68002B02D197F82F30B5E097F91A
:101380001B205D4913469B0013449B000B44103304
:101390009B78012B15D9FA7E584B1A7097F91B20B0
:1013A00013469B0013449B000833534A13440433F1
:1013B000F8687968FA69FFF76BFC034687F82F3005
:1013C00091E097F91B204C4913469B0013449B0066
:1013D0000B4410339B78012B40F0858000237B6207
:1013E0007B68BB620EE0BB6A5A89BB6A1B899A4262
:1013F000BB6A1B7B012B02D001237B6205E0BB6A29
:101400001B68BB62BB6A002BEDD17B6A002B17D037
:10141000BB6A1B8903201946002202F045F8B86216
:10142000BB6A002B11D0B86A796802F01FFB034633
:10143000002B0AD0B86A02F065FA0023BB6204E010
:101440007B68BB62B86A02F0D1FABB6A002B42D05B
:10145000072001F087FE78617B69002B34D07B691F
:1014600000221A607B69BA6A5A6097F91B202249E8
:1014700013469B0013449B000B441B68002B15D0A4
:1014800097F91B201C4913469B0013449B000B44F7
:101490001B683B6202E03B6A1B683B623B6A1B685D
:1014A000002BF8D13B6A7A691A6009E097F91B2092
:1014B000114913469B0013449B000B447A691A6040
:1014C000002387F82F300EE0B86A02F01BFAFF23E2
:1014D00087F82F3007E0074B9B6C0133054A936474
:1014E000FF2387F82F3097F82F305BB2184630373C
:1014F000BD4680BDD09400201C400020E440002068
:1015000080B588B000AFF860B9607A603B600023B6
:10151000FB7703202A21002201F0C6FFB861BB69D6
:10152000002B06D1384B9B6C0133374A9364FF2361
:1015300065E0BB695B687B617B690E333B61BB8E99
:10154000184601F08FFA03461A463B69DA803B6978
:101550000833184639680622FEF7FCFD3B69123352
:101560001846F96A0622FEF7F5FD7B691846796888
:101570000622FEF7EFFD7B6906331846B96806229E
:10158000FEF7E8FD3B690E331846B96A0422FEF700
:10159000E1FD3B6918331846396B0422FEF7DAFD8A
:1015A0003B6900221A70002242F001025A703B6926
:1015B000002242F008029A700022DA703B6906228B
:1015C0001A713B6904225A717B69002242F00802B9
:1015D0001A73002242F006025A73FB689B69F8688E
:1015E000B96998470346FB77074B1B6B0133064AE3
:1015F0001363B86902F086F90023BB61FB7F5BB21D
:1016000018462037BD4680BDD094002090B587B0E5
:1016100004AF786039607B6803F123027B6803F1D3
:1016200023047B6804330093084B01933B680293C7
:101630000123039378681146054A2346FFF760FFAC
:10164000034618460C37BD4690BD00BF808F00088A
:10165000788F000880B586B000AF786039600E23BF
:10166000FB827B685B890E2B0AD8444B1B6D0133D0
:10167000424A1365414BDB6B0133404AD36374E04C
:101680007B685B683B613B691A7B5B7B1B02134396
:10169000FB813B691B7803F00103002B23D03B69DE
:1016A0001B78012B0FD13B695B78002B1BD13B6969
:1016B0009B785E2B17D17B685B7B43F01003DAB21B
:1016C0007B685A730FE03B6918462D49062207F0E4
:1016D000D3FB0346002B06D17B685B7B43F00803FA
:1016E000DAB27B685A73FB89082B03D0B3F5C16F5C
:1016F0001ED02DE03B6893F8293003F02003002B27
:1017000000D132E038687968FFF782FBFB8A5B42E0
:101710009BB29BB21BB27868194602F083F803466D
:10172000002B00D021E07868396800F0CBFA1AE08D
:101730003B6893F8293003F02003002B00D114E01C
:101740003B682333386819467A68FFF78BFB0AE059
:101750000A4B1B6D0133094A1365084BDB6B0133E0
:10176000064AD36301E0002303E0786802F0CAF878
:1017700000235BB218461837BD4680BDD0940020C8
:10178000788F000880B58CB004AF786039608B4BDF
:10179000D3F8C4300133894AC2F8C4307B685B682F
:1017A000FB61FB691B789BB203F00F039BB29B00AC
:1017B0009BB2FB82FB8A5B429BB29BB21BB27868F6
:1017C000194602F02FF80346002B03D17B681B89D2
:1017D000032B00D8D9E07B685B681B787B757B683E
:1017E0005B685B783B757B7D002B00F0C980082B24
:1017F00040F0B7800123BB61714B1B6803F0F0031D
:10180000E02B01D10023BB616D4B1B681846396882
:1018100000F060FC0346002B01D00023BB61BB69D4
:10182000002B0AD1654BD3F8E8300133634AC2F884
:10183000E830786802F066F8BDE07B681B89072B0A
:1018400000D8A2E0786800F0ADF90346002B0AD07A
:10185000786802F057F8594BD3F8D0300133574A23
:10186000C2F8D030A7E07868222101F0DBFF034600
:10187000002B33D0B7F916307868194601F0D2FF43
:101880000346002B00D08BE07B681B8902201946A1
:10189000002201F009FE38613B69002B00D17FE096
:1018A0003869796802F0E2F80346002B00D077E04F
:1018B0003B695B68FB61FB8A5B429BB29BB21BB2DC
:1018C0003869194601F0AEFF0346002B00D067E0EF
:1018D000786802F017F83B697B6008E078686FF081
:1018E000210101F09FFF0346002B00D058E07B68E8
:1018F0005B68FB60324B1A68FB69DA60314B1A682F
:10190000FB691A61FB6800221A70FB6800229A705A
:101910000022DA70FB69FF221A72FB6900229A72B8
:101920000022DA72254BD3F8C0300133234AC2F8C3
:10193000C030B7F916307868194601F073FF0346D6
:10194000002B0DD100230093012301933B680293E8
:1019500078681B490022FF2300F0F2FA0346FB726D
:101960000FE0164BD3F8E0300133144AC2F8E030F0
:10197000124BD3F8CC300133104AC2F8CC3000E01F
:1019800000BF786801F0BEFF15E0786801F0BAFF8B
:101990000A4BD3F8D4300133084AC2F8D4300AE0F5
:1019A000786801F0AFFF054BD3F8E8300133034A04
:1019B000C2F8E83000BF2037BD4680BDD09400207B
:1019C000A8740020A074002080B582B000AF7860B9
:1019D0000B46FB70FB78786803211A4600F014F878
:1019E0000837BD4680BD00BF80B582B000AF7860CB
:1019F0000B46FB70FB7878680B211A4600F004F860
:101A00000837BD4680BD00BF80B588B002AF7860A2
:101A10000B46FB701346BB7001202421002201F00D
:101A200043FD78617B69002B47D07B685B683B6135
:101A30007B695B68FB60FB68FA781A70FB68BA78B0
:101A40005A70FB6800221A7100225A71FB6800224A
:101A50009A710022DA717B695B6803F108027B6886
:101A60005B68104619461C22FEF774FBFB680022D7
:101A70009A700022DA707B695B89F868194600F079
:101A80007FF803461A46FB685A800D4BD3F8C030E6
:101A900001330B4AC2F8C0303B69DB68BB6007F119
:101AA0000802002300930123019378690021FF239A
:101AB00000F0E2FA786901F025FF1837BD4680BDD5
:101AC000D094002080B489B000AF786039607B6822
:101AD000FB610023FB8100237B61FB6903F00103B1
:101AE0003B613B69002B0DD03B68002B0ADD07F101
:101AF0000E030133FA69511CF96112781A703B68C0
:101B0000013B3B60FB69BB610AE0BB699A1CBA619F
:101B10001B881A467B6913447B613B68023B3B6030
:101B20003B68012BF1DC3B68002B04DD07F10E0361
:101B3000BA6912781A70FB891A467B6913447B6173
:101B40007B691A0C7B699BB213447B617B691A0C1D
:101B50007B699BB213447B613B69002B08D07B6996
:101B60001B029AB27B6903F47F431B0A13437B6118
:101B70007B699BB218462437BD465DF8047B7047ED
:101B800080B582B000AF78600B467B807B88786838
:101B90001946FFF797FF0346DB439BB21846083709
:101BA000BD4680BD80B586B000AF786000237B6104
:101BB0000023FB737B683B6129E03B695A683B6902
:101BC0005B8910461946FFF77DFF03461A467B697D
:101BD00013447B617B691A0C7B699BB213447B6164
:101BE0003B695B8903F001039BB2002B0CD0FB7BAC
:101BF000C3F10103FB737B691B029AB27B6903F497
:101C00007F431B0A13437B613B691B683B613B6954
:101C1000002BD2D1FB7B002B08D07B691B029AB230
:101C20007B6903F47F431B0A13437B617B699BB28F
:101C3000DB439BB218461837BD4680BD80B485B0E3
:101C400000AF78601C4B1B68FB6015E0FB6893F8E5
:101C5000293003F00103002B0BD07B681A68FB6866
:101C60005B685A40FB689B681340002B01D1FB68FE
:101C70001CE0FB681B68FB60FB68002BE6D10F4B88
:101C80001B68002B07D00D4B1B6893F8293003F01D
:101C90000103002B08D10A4BD3F8AC300133084ABA
:101CA000C2F8AC30002301E0044B1B68184614371F
:101CB000BD465DF8047B7047C4940020C8940020A2
:101CC000D094002080B586B000AF78603960964B24
:101CD000D3F894300133944AC2F894307B685B683F
:101CE0007B617B691B781B09DBB2042B12D07868FF
:101CF00001F008FE8C4BD3F8B83001338A4AC2F8A1
:101D0000B830894BD3F89C300133874AC2F89C30F5
:101D1000002304E17B691B789BB203F00F037B81F6
:101D20007B899B007B817B695B889BB2184600F0B6
:101D3000AFFE03463B817B685B897A899A4204D86F
:101D40007B681B893A899A4212D9786801F0DAFDDA
:101D5000754BD3F8A4300133734AC2F8A430724BE8
:101D6000D3F89C300133704AC2F89C300023D6E08F
:101D70003B897868194601F0F1FC7B691B696B4A65
:101D800013607B69DB686A4A13600123FB603B6870
:101D90003B613B6993F8293003F00103002B17D016
:101DA0003B690433002B13D03B695B68002B0FD0D9
:101DB0005E4B1A683B695B689A4208D05B4B1B68B4
:101DC0001846396900F086F90346002B00D015E06B
:101DD000FB68002B05D00023FB60564B1B683B6162
:101DE00002E03B691B683B613A693B689A4202D159
:101DF0003B691B683B613B69002BCAD14C4B1B689C
:101E00001846396800F066F90346002B05D1484BA7
:101E10001B6803F0F003E02B0BD1786801F072FD32
:101E2000414BD3F89C3001333F4AC2F89C30002329
:101E300075E03B69002B04D1786801F063FD002355
:101E40006DE07B69DB889BB21A464FF63F73134007
:101E5000002B0BD0786800F097FB78607B68002B34
:101E600001D100235BE07B685B687B61324A3B68A1
:101E70001360324A7B6913607868396801F0E4FEC8
:101E80000346002B3ED17B695B7A062B09D0112BD0
:101E900002D0012B0AD00EE07868396805F0B2FD57
:101EA00030E07868396802F0C1FE2BE07868396864
:101EB000FFF768FC26E01D4B1B681846396800F0E8
:101EC00009F90346002B0CD1184B1B6803F0F003F3
:101ED000E02B06D07B687A695A6078680221FFF7A8
:101EE00073FD786801F00EFD0F4BD3F8B03001336D
:101EF0000D4AC2F8B0300C4BD3F89C3001330A4A7B
:101F0000C2F89C300C4B00221A600C4B00221A6065
:101F1000074B00221A60054B00221A6000235BB2B7
:101F200018461837BD4680BDD0940020A874002004
:101F3000A0740020C4940020A4740020AC7400207D
:101F400080B588B000AFF860B9607A60FB707B68DC
:101F5000002B5FD01423FB83F868142101F062FC8E
:101F60000346002B08D0424BD3F8B8300133404A27
:101F7000C2F8B830FE2375E0FB685B68BB61BB69E3
:101F8000FA781A72BB6997F82C205A727B681A6823
:101F9000BB691A61FB8B9B089BB2DBB243F0400329
:101FA000DAB2BB691A70BB6997F828205A70FB68CF
:101FB0001B89184600F056FD03461A46BB695A8035
:101FC000BB6900229A710022DA712A4B1B881846DD
:101FD00000F048FD03461A46BB699A80254B1B88D2
:101FE00001339AB2234B1A80BB68002B03D0BB6825
:101FF0001B68002B04D13B6B5A68BB69DA6003E0B5
:10200000BB681A68BB69DA60BB6900229A72002259
:10201000DA7208E0FB685B68BB61BB691B697B61C6
:1020200007F114037B60124BD3F890300133104A50
:10203000C2F890303B6B1B8C002B0CD0FB681A89CC
:102040003B6B1B8C9A4206D9F868396B7A6800F0B2
:1020500005FC034606E03B6B5B69386BF9687A6800
:10206000984703465BB218462037BD4680BD00BF87
:10207000D0940020E640002090B58BB004AFF8600B
:10208000B9607A60FB707868FFF7D8FD78617B698A
:10209000002B08D10E4BD3F8AC3001330C4AC2F8F8
:1020A000AC30FC230FE0FC7897F82830009397F8C9
:1020B0002C3001937B690293F868B9687A682346EB
:1020C000FFF73EFF03465BB218461C37BD4690BD86
:1020D000D094002080B485B000AF786039607B6810
:1020E000FB607B68B3F1FF3F02D07B68002B01D11E
:1020F000012325E03B6893F8293003F00203002B0D
:1021000001D100231CE03B685A687B689A4201D1E8
:10211000002315E0FA683B685B685A403B689B689F
:102120001340002B0BD13B689B68DA437B681A4055
:102130003B689B68DB439A4201D1012300E0002306
:1021400018461437BD465DF8047B704780B588B0EB
:1021500000AF786039600023FB833B68002B7B680D
:102160005B685B687B617B699B889BB2002B20D19D
:102170007B685B68BB617B691A687B685A60BB6976
:102180005A687B680833104619461422FDF7E2FFAF
:10219000B8690121FFF728FCB86901F00FFC03467C
:1021A000FB74FB7C9AB2FB8B1344FB83B86901F090
:1021B000A9FB7B685B68BB6114E0BB695B687B6102
:1021C000BB69FB607B691B68BB61F86801F0F6FBCB
:1021D0000346FB74FB7C9AB2FB8B1344FB83F868C9
:1021E00001F090FBBB69002BE7D17868396800F0FB
:1021F000ADF8064B1A88FB8BD31A9AB2034B1A80A0
:10220000FB8B18462037BD4680BD00BFEC40002048
:1022100080B588B000AF7860396000233B6100234F
:10222000BB6100237B610023FB60264B1B68FB61C5
:102230002CE0FB695A697B68DB689A420CD1FB6928
:102240009A697B681B699A4206D1FB699A897B6807
:102250009B889BB29A4210D0FB680133FB60BB693C
:10226000002B02D1FB69BB6107E0FB69DA7FBB6928
:10227000DB7F9A4201D8FB69BB61FB691B68002BBD
:1022800001D0FB697B61FB691B68FB61FB69002B6B
:10229000CFD1BB69002B08D0B8697969FFF756FF29
:1022A000B8603A69BB6813443B613A693B689A423B
:1022B00002DAFB68012BB2DC3B6918462037BD46C9
:1022C00080BD00BFE840002080B584B000AF7860DA
:1022D0003960052000F046FFF860FB68002B15D13F
:1022E00078683968FFF794FF02463B689A4203DB3F
:1022F000052000F037FFF860FB68002B06D1114B7A
:102300009B6F01330F4A9367002316E0F8680021A2
:10231000202206F0E3FDFB680322DA770A4B1A68F5
:10232000FB681A60084AFB681360FB6808331846AC
:1023300079681422FDF70EFFFB6818461037BD467A
:1023400080BD00BFD0940020E840002080B582B05E
:1023500000AF786039600A4B1A687B689A4204D1F2
:102360007B681B68064A136003E07B681A683B6859
:102370001A600520796800F06FFF0837BD4680BD00
:10238000E840002080B58AB000AF78603960002353
:102390003B620123BB613B685B687B617B695B8857
:1023A0009BB2184600F074FB03461A467B691B7803
:1023B0009BB203F00F039BB219468903CB1A9B0013
:1023C0009BB213447B827B69DB889BB2184600F08A
:1023D0005FFB0346C3F30C039BB2DB003B823B680D
:1023E0005B687B627B6A00221A7000225A700022AE
:1023F0009A700022DA707B6A3A8A9A803A8A7B8ADB
:1024000013449AB27B6ADA807B685B68FB614EE0BA
:10241000FB695B68FB607B6A9B889AB2FB689B8860
:102420009BB29A421FD27B6AFA691A603B6A002B00
:1024300015D07B6A9B889AB23B6ADB889BB29A4232
:10244000C0F08B807B6ADB889AB2FB689B889BB26A
:102450009A4200F282803B6A3A681A602AE07B68FE
:102460003A685A6026E07B6A9B889AB2FB689B8830
:102470009BB29A4200D170E07B6A9B889AB2FB685B
:10248000DB889BB29A4200D267E03B6A002B09D0FE
:102490003B6ADB889AB2FB689B889BB29A4201D068
:1024A0000023BB61FB681B68FB61FB683B62FB6947
:1024B000002BADD1FB69002B17D13B6A002B11D04B
:1024C0003B6ADB887B6A9B883B6A3A681A603B6A96
:1024D000DB889AB27B6A9B889BB29A4205D0002324
:1024E000BB6102E07B683A685A607B689B7F03F0BF
:1024F0000103002B2FD0BB69002B2AD07B685B68BF
:102500005B689B889BB2002B02D00023BB6120E05C
:102510007B6A3B627B6A1B68FB6112E0FB695B685C
:102520007B623B6ADB889AB27B6A9B889BB29A4249
:1025300002D00023BB6107E07B6A3B627B6A1B68B9
:10254000FB61FB69002BE9D1BB69002B01D07B6AE1
:10255000DB88BB6911E000230FE0386801F02EFA38
:1025600003461946074B1A888BB2D31A9AB2054B09
:102570001A80386801F0C6F9002318462837BD468E
:1025800080BD00BFEC40002080B58AB000AF78600D
:102590000023FB61994B5B6E0133984A53667B685D
:1025A0005B68BB61BB691B7803F00F039B00142BB6
:1025B00007D0924BD3F888300133904AC2F8883064
:1025C0000FE1BB69DB889BB2184600F061FA034655
:1025D000C3F30C039BB2DB00FB82BB695B889BB23D
:1025E000184600F055FA03461A46BB691B789BB2A1
:1025F00003F00F039BB219468903CB1A9B009BB2D1
:102600001344BB82786801F0D9F90346FB747C4B14
:102610001B881A46FB7C13440A2B14DDFB7CB8692B
:102620001946FFF7F5FD0346002B06D0744B1B88B7
:102630001A46FB7C13440A2B05DD704B9B6F01335C
:102640006E4A9367CDE06F4B1B683B621FE03B6AAD
:102650005A69BB69DB689A4214D13B6A9A69BB69C3
:102660001B699A420ED13B6A9A89BB699B889BB2CF
:102670009A4207D1614BD3F88C3001335F4AC2F8DC
:102680008C3007E03B6AFB613B6A1B683B623B6A3C
:10269000002BDCD13B6A002B09D1FB7CB8691946C1
:1026A000FFF712FE38623B6A002B1CD199E0BB6930
:1026B000DB889BB2184600F0EBF90346C3F30C032A
:1026C000002B10D13B6ADB89184600F0E1F9034684
:1026D000C3F30C03002B06D03B6A08331846B969D4
:1026E0001422FDF737FDFB7C9AB2454B1B8813443F
:1026F0009AB2434B1A80BB69DB889BB203F020037C
:10270000002B0CD13B6A9B7F43F00103DAB23B6A9A
:102710009A77FA8ABB8A13449AB23B6A9A83386AD8
:102720007968FFF72FFE0346002B58D03B6A9B8B3E
:1027300014339AB23B6A9A833B6A5B685B681B6896
:102740007B623B6A5B685B68BB613B6A0833B86964
:1027500019461422FDF7FEFC3B6A9B8B184600F0DD
:1027600081F903461A46BB695A80BB6900229A71F7
:102770000022DA71BB6900229A720022DA72B8690B
:102780001421FFF7FDF903461A46BB695A813B6ADB
:102790005B687B600EE07B6A5B68FB60786A6FF069
:1027A000130101F03FF87868796A01F031F9FB68AC
:1027B0001B687B627B6A002BEDD1386AF969FFF7F1
:1027C000C5FD786801F0FAF8034619460C4B1A88E3
:1027D0008BB2D31A9AB20A4B1A807B680AE00023A4
:1027E00008E0064BDB6E0133044AD366786801F0DB
:1027F00089F8002318462837BD4680BDD0940020B4
:10280000EC400020E840002080B500AF062000F03A
:10281000A9FC0346184680BD80B582B000AF786041
:102820000620796800F018FD0837BD4680BD00BF5E
:1028300080B584B000AF78607B68FB60FB685B6943
:10284000002B04D0FB685B69184601F05BF8F86860
:10285000FFF7E2FF1037BD4680BD00BF90B593B0D3
:1028600002AFF860B9607A60BB681B8C7B8614236A
:102870007B870023FB86FB685B68FB62FB6ABB62AD
:10288000BB6ADB889BB2184600F002F903463B871F
:102890003B8FC3F30C03BB873B8F03F40053FB84D4
:1028A000FB681B89143BFB877B8E143B002B00DAF3
:1028B0000733DB10BB84C7E0FA8F7B8E143B9A4250
:1028C000D4BF01230023DBB27B84BB8FC3F30C0393
:1028D0009AB2FB8C13433B877B8C002B03D13B8F3D
:1028E00043F400533B877B8C002B03D1BB8CDB0074
:1028F0009BB200E0FB8F3B8402201421002200F0F9
:10290000D3FDF861FB69002B01D1FF23A1E0FB6936
:102910005B681846F96A1422FDF71CFCFB695B68CA
:10292000BB62FB685A687B8F1A44FB685A60FB687D
:102930005A897B8FD31A9AB2FB685A813B8CBB862B
:1029400048E0FB685A89BB8E934228BF1346FB863A
:10295000FB8E002B03D1FB681B68FB603AE0FFF79E
:1029600053FFB861BB69002B04D1F86900F0CAFFBE
:10297000FF236EE0BC69FB685B68FA8E0093FB8EF8
:102980000193032011460222234600F08DFE786158
:102990007B69002B07D1B869FFF73EFFF86900F0AB
:1029A000B1FFFF2355E0F86801F020F8BB69FA6831
:1029B0005A61BB69294A1A61F869796901F028F8F6
:1029C000BA8EFB8ED31ABB86BB8E002B02D0FB685F
:1029D0001B68FB60BB8E002BB3D1FB8E7B873B8FCC
:1029E000184600F03FF803461A46BB6ADA803B8C73
:1029F00014339BB2184600F035F803461A46BB6AFA
:102A00005A80BB6A00229A720022DA72B86A1421D4
:102A1000FFF7B6F803461A46BB6A5A81BB685B6982
:102A2000B868F9697A6898470D4B1B6E01330C4AF8
:102A30001366F86900F066FFFA8F3B8CD31AFB87A8
:102A4000BA8FBB8C1344BB87FB8F002B7FF434AF52
:102A500000235BB218464437BD4690BD31280008BC
:102A6000D094002080B483B000AF0346FB80FB8885
:102A70001B029AB2FB881B0A9BB29BB213439BB208
:102A80009BB218460C37BD465DF8047B704700BF0B
:102A900080B582B000AF0346FB80FB881846FFF785
:102AA000E1FF034618460837BD4680BD80B483B0B9
:102AB00000AF78607B681A067B6803F47F431B02D3
:102AC0001A437B6803F47F031B0A1A437B681B0EBF
:102AD000134318460C37BD465DF8047B704700BFB2
:102AE00080B582B000AF78607868FFF7DFFF0346FB
:102AF00018460837BD4680BD80B485B000AF786009
:102B0000294B1B687A6812881344FB607A68FB685B
:102B10009A421FD0FB681B79002B1BD1234B1B68EB
:102B2000FA689A4216D0224B1A68FB689A4202D180
:102B30001F4A7B681360FB681A887B681A801A4BEF
:102B40001B68FA68128813447A6817490968521A90
:102B500092B25A80144B1B687A6852881344BB6047
:102B6000BA687B689A421AD0BB681B79002B16D1D1
:102B70000F4B1A687B689A4202D10D4ABB681360FA
:102B80007B681A88BB681A80074B1B687A681288B2
:102B90001344BA6804490968521A92B25A80143729
:102BA000BD465DF8047B7047F0400020F4400020F3
:102BB000F840002080B483B000AF1B4B033323F0F8
:102BC00003031A46194B1A60184B1B687B607B681D
:102BD0004FF400521A807B6800225A807B680022E2
:102BE0001A71124B1B6803F50053114A1360104B06
:102BF0001B6801221A710E4B1B684FF400521A8099
:102C00000B4B1B684FF400525A80084B1B68094A53
:102C10001360094B4FF40052A3F854210C37BD4602
:102C20005DF8047B704700BFB0740020F0400020C6
:102C3000F4400020F8400020D094002080B584B0FB
:102C400000AF78607B68002B00D137E01D4B1B681C
:102C50007A689A421B4B1B687A689A4204D31A4BD3
:102C60001B687A689A4207D3184BD3F86031013356
:102C7000164AC2F8603121E07B68083BFB60FB68C4
:102C800000221A71124B1B68FA689A4202D2104A4B
:102C9000FB6813600D4BB3F85621FB6809490968BE
:102CA0005B1A99B2FB681B88CB1A9BB213449AB289
:102CB000064BA3F85621F868FFF71EFF1037BD46F4
:102CC00080BD00BFF0400020F4400020D0940020E0
:102CD000F840002080B487B000AF78600B467B805E
:102CE0007B8803339BB223F003037B807B880B2B11
:102CF00001D80C237B807B88B3F5005F01D90023CA
:102D0000B8E05F4B1B687A689A425D4B1B687A6833
:102D10009A4204D35B4B1B687A689A4208D35A4B99
:102D2000D3F860310133584AC2F860317B68A1E0C2
:102D30007B68083B7B617B69514A12689B1A7B82E6
:102D40007B691A887B8AD31A9BB2083B3B827A88BC
:102D50003B8A9A4201D900238CE07A883B8A9A42C6
:102D600001D17B6886E0464B1B687A691288134460
:102D7000FB60FB681B79002B3DD1FB681B887B81C6
:102D80007A8A7B8813449BB208333B813F4B1A6895
:102D9000FB689A4205D13A4B1A683B8913443B4A77
:102DA0001360374B1A683B891344FB60FB680022B1
:102DB0001A71FB687A891A80FB687A8A5A807B6963
:102DC0003A891A80FB681B88B3F5005F06D02C4B4C
:102DD0001B68FA68128813443A895A802A4BB3F860
:102DE000562179883B8ACB1A9BB213449AB2264B60
:102DF000A3F856213DE07B8803F114023B8A9A42F6
:102E000037D87A8A7B8813449BB208333B811C4BAA
:102E10001A683B891344FB601C4B1B68FA689A4292
:102E200002D21A4AFB681360FB6800221A717B69A0
:102E30001A88FB681A80FB687A8A5A807B693A890B
:102E40001A80FB681B88B3F5005F06D00C4B1B682B
:102E5000FA68128813443A895A800B4BB3F856210A
:102E600079883B8ACB1A9BB213449AB2064BA3F8DB
:102E700056217B6818461C37BD465DF8047B7047B9
:102E8000F0400020F4400020D0940020F8400020C2
:102E900080B489B000AF0346FB80FB88002B01D1D2
:102EA0000023D3E0FB8803339BB223F00303FB80B2
:102EB000FB880B2B01D80C23FB80FB88B3F5005F4C
:102EC00001D90023C2E0644B1B681A46634B1B68A0
:102ED000D31AFB83ABE0614B1A68FB8B13447B6115
:102EE0007B691B79002B40F09C807B691B881A460C
:102EF000FB8BD31AA3F10802FB889A42C0F09180A1
:102F00007B691B881A46FB8BD31AA3F10802FB8846
:102F100014339A4240D3FA8BFB8813449BB2083394
:102F20007B824E4B1A687B8A1344FB60FB6800224D
:102F30001A717B691A88FB681A80FB68FA8B5A80C1
:102F40007B697A8A1A807B6901221A71FB681B8867
:102F5000B3F5005F06D0414B1B68FA681288134432
:102F60007A8A5A803E4BB3F85621FB8813449BB2B1
:102F700008339AB23A4BA3F85621394BB3F858218B
:102F8000374BB3F856319A4228D2354BB3F8562115
:102F9000334BA3F8582121E07B6901221A71304B91
:102FA000B3F856217B6919887B692C4800681B1A85
:102FB0009BB2CB1A9BB213449AB2294BA3F8562169
:102FC000274BB3F85821264BB3F856319A4205D215
:102FD000234BB3F85621224BA3F858211E4B1B68F4
:102FE0007A699A421AD11C4B1B68BB6105E01B4BE6
:102FF0001B68BA6912881344BB61BB691B79002B3B
:1030000004D0184B1B68BA699A42F0D1124ABB69C6
:103010001360114B1A68134B1B689A427B69083383
:1030200014E00E4B1A68FB8B13441B88FB83FA8B4E
:10303000FB88C3F500539A42FFF64DAF084BD3F817
:103040005C310133064AC2F85C310023184624374C
:10305000BD465DF8047B7047F8400020F04000203A
:10306000D0940020F440002080B483B000AF00234F
:103070007B8032E07A88364913469B0013449B00DC
:103080000B4403F5B07300225A817A883049134605
:103090009B0013449B000B4403F5B47300229A80F9
:1030A0007A882B4913469B0013449B000B4403F57D
:1030B000B47300229A607A887B88264931F813001D
:1030C000234913469B0013449B000B4403F5B07344
:1030D00002461A817B8801337B807B880A2BC9D901
:1030E0001D4B033323F003037B6000237B8027E029
:1030F0007B881A4A002142F8231000233B8015E008
:103100007B88164A52F823207B681A607B88134913
:103110007A6841F823207B88114A32F813301A4626
:103120007B6813447B603B8801333B807B88094A82
:1031300032F813303A889A42E2D37B8801337B809D
:103140007B880A2BD4D90C37BD465DF8047B7047C9
:10315000D0940020A08F000828410020FC400020CF
:10316000888F000880B485B000AF0346FB71FB79FF
:103170000A2B01D9002365E0FB79354A52F8233048
:10318000FB60FB68002B48D0FB79FA681268304975
:1031900041F82320FA79F9792E480B469B000B441D
:1031A0009B00034403F5B0735B89013398B229494E
:1031B00013469B0013449B000B4403F5B073024677
:1031C0005A81FA79234913469B0013449B000B4410
:1031D00003F5B4739988FA791E4813469B0013448B
:1031E0009B00034403F5B0735B89994229D2FA79B5
:1031F000F97918480B469B000B449B00034403F5E8
:10320000B0735889134913469B0013449B000B4429
:1032100003F5B47302469A8013E0FA790D49134618
:103220009B0013449B000B4403F5B4739B68591C2B
:10323000084813469B0013449B00034403F5B473F2
:103240009960FB6818461437BD465DF8047B7047EB
:10325000FC400020D094002080B485B000AF03462D
:103260003960FB713B68002B00D122E03B68FB60BA
:10327000FA79124913469B0013449B000B4403F553
:10328000B0735B89013B98B20C4913469B00134411
:103290009B000B4403F5B07302465A81FB79084A40
:1032A00052F82320FB681A60FB790549FA6841F857
:1032B00023201437BD465DF8047B7047D09400206E
:1032C000FC40002080B584B000AFF860B9607A603F
:1032D0003B60FB6800225A60FB6800229A60FB6832
:1032E0000022DA60FB68002283F82920FB68BA69B3
:1032F000DA61134B1B785A1CD1B2114A1170FA686B
:1033000082F82C30FB683A6A1A61F868B9687A6802
:103310003B6800F019F8FB69F86898470346002BF2
:1033200001D0002307E0074B1A68FB681A60054AC2
:10333000FB681360FB6818461037BD4680BD00BFB0
:1033400053740020C494002080B584B000AFF860AE
:10335000B9607A603B60F868B96800F00BF8F8680B
:10336000796800F073F8F868396800F05BF8103796
:10337000BD4680BD80B586B000AF786039603B68DF
:10338000002B3ED03B681A687B685B689A4238D055
:10339000224B1B687B6111E07B691A687B685B6864
:1033A0009A4208D17B69DB68FB60786900F06AFEAD
:1033B000FB687B6102E07B69DB687B617B69002BDA
:1033C000EAD1174B1B683B6118E03B69002B12D018
:1033D0003B691B68002B0ED03B691A687B685B68F1
:1033E0009A4208D13B68002B02D03B681B6800E082
:1033F00000233A6913603B69DB683B613B69002B42
:10340000E3D13B68002B02D03B681B6800E000233F
:103410007A6853601837BD4680BD00BF14970020FE
:103420001C97002080B483B000AF786039603B689F
:10343000002B02D03B681B6800E000237A68D36051
:103440000C37BD465DF8047B704700BF80B483B085
:1034500000AF786039603B68002B02D03B681B6886
:1034600000E000237A6893600C37BD465DF8047B6A
:10347000704700BF80B483B000AF7860034A7B68B8
:1034800013600C37BD465DF8047B7047C89400207C
:1034900080B400AF034B01221A70BD465DF8047B77
:1034A000704700BFCC94002080B588B000AF0346C1
:1034B000FB710B46BB801346BB71FB79032B17D8FE
:1034C00001A252F823F000BFD9340008DF3400080D
:1034D000E5340008EB3400083623FB820AE022239F
:1034E000FB8207E00E23FB8204E00023FB8201E065
:1034F0000023D4E0BB79032B00F2C88001A252F86C
:1035000023F000BFFB350008593600085936000883
:10351000153500080A20FFF725FEF861FB69002B2E
:1035200003D1FFF7B5FF0023B9E0FB69BA791A733D
:10353000FB6900221A60FB8A1033FA6913440333D3
:1035400023F003031A46FB695A60FB69BA881A81A3
:10355000FB8A033323F00303C3F5BB630433BA8848
:103560009342A8BF13469AB2FB695A81FB690122B4
:10357000DA81FB69BB61BB88FA6952899B1A3B619E
:1035800037E00A20FFF7EEFDF860FB68002B06D15C
:10359000FFF77EFFF86900F0B5F900237FE0FB68D4
:1035A000BA791A73FB6800225A73FB6800221A600A
:1035B000BB69FA681A603B699AB2FB681A813B6979
:1035C0009BB240F2DC52934228BF13469AB2FB688A
:1035D0005A81FB6803F11002FB685A60FB68012204
:1035E000DA81FB685B891A463B699B1A3B61FB6881
:1035F000BB613B69002BC4DC4AE0FB8A13339BB2FE
:1036000023F003039AB2BB8803339BB223F0030376
:103610009BB213449BB21846FFF73AFCF861FB6972
:10362000002B01D100233AE0FB8A1033FA691344DE
:10363000033323F003031A46FB695A60FB69BA8817
:103640001A81FB691A89FB695A81FB6900221A6099
:10365000FB69BA791A731BE00920FFF783FDF86153
:10366000FB69002B01D1002319E0FB6900225A609D
:10367000FB69BA881A81FB691A89FB695A81FB695F
:1036800000221A60FB69BA791A7301E0002306E090
:10369000FB690122DA81FB6900225A73FB69184633
:1036A0002037BD4680BD00BF80B485B000AF3B6011
:1036B0000346FB710B46BB801346BB71FB79032BA2
:1036C00016D801A252F823F0D9360008DF360008D8
:1036D000E5360008EB3600083623FB810AE022239A
:1036E000FB8107E00E23FB8104E00023FB8101E066
:1036F00000232DE0FB89033323F00302BB881A4427
:10370000BB8B9A4201DD002322E03B6800221A6055
:10371000BB69002B08D0FB89033323F00303BA698C
:103720001A443B685A6002E03B6800225A603B68DA
:1037300002225A733B68BA881A813B681A893B682F
:103740005A813B68BA791A733B680122DA813B6877
:1037500018461437BD465DF8047B704780B586B0C7
:1037600000AF78600B467B807B681B7B032B06D009
:103770007B681B7B012B02D07B681B7B002B7B684B
:103780001B897A889A4200D348E07B887A6812893C
:103790009B1AFB607B887B827B687B610FE07B6987
:1037A0005B897A8AD31A7B827B691A89FB689BB210
:1037B00013449AB27B691A817B691B687B617B69C0
:1037C0005B897A8A9A42EAD87B691B7B002B12D1EB
:1037D0007B695B897A8A9A420DD07B695B681A465D
:1037E0007B69D31A9AB27B8A13449BB278691946D3
:1037F000FFF770FA78617B697A8A5A817B695A8906
:103800007B691A817B691B68002B04D07B691B686C
:10381000184600F077F87B6900221A601837BD4619
:1038200080BD00BF80B485B000AF78600B467B8060
:10383000B7F90230002B02D07B68002B01D10023A6
:103840005AE0B7F90230002B09DA7B885B42FB8132
:103850007B685B89FA899A4203D901234CE07B8813
:10386000FB817B681B7BBB817B685B68BB60BB8922
:10387000002B02D0BB89032B13D17B685A68B7F9A0
:1038800002305B421A447B685A607B685A687B68E6
:1038900010339A4204D27B68BA685A6001232BE045
:1038A0001BE0BB89022B02D0BB89012B13D1B7F9D6
:1038B0000230002B0DDA7B685B89FA899A4208D8BE
:1038C0007B685A68B7F902305B421A447B685A60D9
:1038D00003E0012310E001230EE07B685A897B8816
:1038E00013449AB27B685A817B681A897B88134497
:1038F0009AB27B681A81002318461437BD465DF8DA
:10390000047B704780B586B000AF78607B68002B81
:1039100001D100234EE07B681B7B002B06D07B6827
:103920001B7B012B02D07B681B7B022B0023FB75CA
:103930003CE07B68DB89013B9AB27B68DA817B687B
:10394000DB89BB82BB8A002B2ED17B681B683B6165
:103950007B681B7BFB817B685B7B03F00203002B96
:1039600006D07B68BB60BB681B697868984715E028
:10397000FB89032B04D10A207968FFF76DFC0DE069
:10398000FB89012B02D0FB89022B04D10920796825
:10399000FFF762FC02E07868FFF750F9FB7D013326
:1039A000FB753B697B6001E000237B607B68002B3B
:1039B000BFD1FB7D18461837BD4680BD80B485B0A9
:1039C00000AF78600023FB7305E0FB7B0133FB73E2
:1039D0007B681B687B607B68002BF6D1FB7B1846FD
:1039E0001437BD465DF8047B704700BF80B483B0D8
:1039F00000AF78607B68002B05D07B68DB890133E2
:103A00009AB27B68DA810C37BD465DF8047B70475B
:103A100080B485B000AF786039607B68002B02D03D
:103A20003B68002B00D11CE07B68FB600AE0FB6870
:103A30001A893B681B8913449AB2FB681A81FB6898
:103A40001B68FB60FB681B68002BF0D1FB681A89C0
:103A50003B681B8913449AB2FB681A81FB683A6879
:103A60001A601437BD465DF8047B704780B584B09A
:103A700000AF786039600023FB810023BB817B6845
:103A8000002B08D03B68002B05D07B681A893B6867
:103A90001B899A4201D2F2236AE07B685B891A464D
:103AA000FB89D21A3B685B891946BB89CB1A9A42BB
:103AB00005DB3B685A89BB89D31A7B8104E07B68AC
:103AC0005A89FB89D31A7B817B685A68FB89D11894
:103AD0003B685A68BB891A447B89084611461A46D6
:103AE000FCF738FBFA897B891344FB81BA897B890F
:103AF0001344BB813B685B89BA899A4204D3002393
:103B0000BB813B681B683B607B685B89FA899A4292
:103B10000CD10023FB817B681B687B607B68002BDA
:103B200004D13B68002B01D0F22321E03B68002B3D
:103B30000BD03B685A893B681B899A4205D13B6888
:103B40001B68002B01D0FA2312E07B68002B0BD0FE
:103B50007B685A897B681B899A4205D17B681B6800
:103B6000002B01D0FA2303E03B68002B95D1002302
:103B70005BB218461037BD4680BD00BF80B588B027
:103B800000AFF860B96011461A460B46FB80134639
:103B9000BB800023FB82FB68002B01D100234FE098
:103BA000BB68002B01D100234AE000237B83FB6824
:103BB000002B02D0BB68002B01D1002340E0FB6842
:103BC000FB6136E0BB88002B0AD0FB695B89BA88B1
:103BD0009A4205D3FB695B89BA88D31ABB8025E07A
:103BE000FB695A89BB88D31A3B833A8BFB889A427C
:103BF00001D9FB883B837B8BBA68D118FB695A6873
:103C0000BB881A443B8B084611461A46FCF7A2FAB9
:103C1000FA8A3B8B1344FB827A8B3B8B13447B8366
:103C2000FA883B8BD31AFB800023BB80FB691B689F
:103C3000FB61FB88002B02D0FB69002BC2D1FB8A01
:103C400018462037BD4680BD90B589B000AF78607A
:103C500039600023FB757B685B683B613B695B7A7D
:103C6000FB810023BB61254B1B68FB613AE0FB69CC
:103C70001B7C1A46B7F90E309A422ED1FB69002BF5
:103C800009D0FB691B68002B05D0FB691A681C4B27
:103C90001B689A4221D1FB695B69002B1DD0FB692F
:103CA0005C69FB699B691846F9697A68154BA047FE
:103CB0000346002B11D000237B600123FB75BB69F9
:103CC000002B0AD0FB69DA68BB69DA600B4B1A6813
:103CD000FB69DA60094AFB691360FB69BB61FB6938
:103CE000DB68FB61FB7D002B02D1FB69002BBED1A1
:103CF000FB7D18462437BD4690BD00BF547400209C
:103D0000A8740020A074002080B500AF00F068FC0B
:103D1000074B1B780133DAB2054B1A70044B1B7842
:103D200003F00103002B01D000F028FA80BD00BF92
:103D300058740020B0B586B002AF78600B46FB70B7
:103D4000FB78002B67D07B681B7E042B03D07B683D
:103D50001B7E072B5FD17B689B6F002B05D17B6897
:103D60009B8D40F66832934255D07B68186D7B6816
:103D7000996A7D687B681C1D7B685A8B7B689B8B6E
:103D8000009201932A46234603F0A8FB786800F0CE
:103D90005BFE764B1A687B689A4205D1734B1B68B1
:103DA000DB68724A136019E0704B1B68704A13603D
:103DB00010E06F4B1B68DA687B689A4205D16C4B48
:103DC0001B687A68D268DA6008E0694B1B68DB68B8
:103DD000674A1360664B1B68002BEAD17B680022A0
:103DE000DA60644B01221A707B681B7E042B0CD1B5
:103DF0007B680A221A76604B1A687B68DA605E4A32
:103E00007B68136003F070FD03E002207968FFF720
:103E100023FA0023A4E07B681B7E072B00F290802E
:103E200001A252F823F000BF493E0008B33E00084B
:103E3000CD3E0008ED3E0008093F0008413F000864
:103E4000413F0008253F00080023FB737B685B8B24
:103E5000002B27D0494B1A687B689A4205D1474B03
:103E60001B68DB68454A136019E0444B1B68404AF5
:103E7000136010E03E4B1B68DA687B689A4205D1FC
:103E80003B4B1B687A68D268DA6008E0384B1B68E5
:103E9000DB68374A1360364B1B68002BEAD17B681E
:103EA0000022DA6002207968FFF7D6F900237B60F0
:103EB0004BE00023FB733248796800F02FFE0320AB
:103EC0007968FFF7C9F900237B603EE00023FB73AC
:103ED0002648796800F022FE264B01221A70022043
:103EE0007968FFF7B9F900237B602EE0786802F06B
:103EF00007FF0346FB7397F90F30002B03D17B6854
:103F000005221A7621E020E0786802F0F9FE0346E7
:103F1000FB7397F90F30002B03D17B6805221A76CB
:103F200013E012E0786802F0EBFE0346FB7397F9AA
:103F30000F30002B03D17B6809221A7605E004E0DC
:103F40000023FB7300237B6000BF7B68002B06D03F
:103F500097F90F30002B02D1786803F0BDF8FB7B96
:103F60005BB218461037BD46B0BD00BF14970020A5
:103F700020970020109700202897002024970020E9
:103F80001C97002080B582B000AF78607B681B7EF4
:103F9000012B06D07B689B7F43F01003DAB27B686D
:103FA0009A7778680121FFF7C5FE0346184608375F
:103FB000BD4680BDB0B588B002AF786039607B681F
:103FC0001B7E0A2B08D12C48796800F0A7FD02203F
:103FD0007968FFF741F94CE07B681B6D7B617B687A
:103FE0009B6A3B617B68D3F88C30FB607B681B6904
:103FF000BB602248796800F091FD214B01221A70C4
:104000007B681B6F002B04D07B681B6F184600F089
:104010009FFB7B68DB6E002B04D07B68DB6E184651
:1040200000F096FB7B685B6F002B04D07B685B6FB6
:10403000184600F08DFB3B68002B0ED07D687B6836
:104040001C1D7B685A8B7B689B8B0092019378695F
:1040500039692A46234603F041FA02207968FFF7BE
:10406000FBF8FB68002B04D0FB68B8686FF009010F
:1040700098471837BD46B0BD2897002014970020F8
:104080001097002080B582B000AF78607868012179
:10409000FFF790FF0837BD4680BD00BF80B485B0F4
:1040A00000AF78607B689B6A7A68928D1344FB60EE
:1040B0007B681B6B7A68D28E40F2B4518A4202D878
:1040C0007A68D28E01E040F2B4521344FA68D31AEF
:1040D000002B08DB7B689A8D7B68DA857B681B6B1D
:1040E000FA68D31A15E07B689A6A7B681B6BD31A4F
:1040F000002B03DD7B680022DA8509E07B681A6B00
:104100007B689B6AD31ABB60BB689AB27B68DA850E
:10411000002318461437BD465DF8047B704700BF86
:1041200080B584B000AF78600B467B807B689A8D49
:104130007B8813449AB27B689A857B689B8D40F696
:104140006832934203D97B6840F668329A85786872
:10415000FFF7A4FF0346FB60FB6840F2D9229342BD
:1041600009DD7B689B7F43F00203DAB27B689A77B4
:10417000786802F0B1FF1037BD4680BDB0B58AB097
:1041800002AF00237B75814B1B6801337F4A1360AC
:104190007F4B1B780133DAB27D4B1A700023BB6171
:1041A0007C4B1B68FB61D2E1FB6993F82120784BC3
:1041B0001B789A4203D1FB69DB68FB61C7E1744B52
:1041C0001A78FB6983F821200023FB750023BB7557
:1041D000FB691B7E022B08D1FB6993F84630062B46
:1041E00003D1FB7D0133FB7595E0FB6993F8463005
:1041F0000C2B03D1FB7D0133FB758CE0FB6993F83D
:104200009530002B27D0FB6993F894300133DAB254
:10421000FB6983F89420FB6993F89420FB6993F879
:104220009530013B5C49CB5C9A4274D3FB69002218
:1042300083F89420FB6993F89530062B07D8FB6927
:1042400093F895300133DAB2FB6983F89520F86969
:1042500003F0A8FA5FE0FB699B8E1BB2002B07DB23
:10426000FB699B8E9BB201339BB29AB2FB699A8623
:10427000FB691B6F002B4ED0FB699A8EFB69B3F86C
:10428000443012B21BB29A4245DBFB691B7E022B03
:1042900016D0FB69B3F840301BB2DB109BB21AB2E8
:1042A000FB69B3F842301BB21344FA6992F8462016
:1042B00011463A4A525C93409AB2FB69A3F84420F3
:1042C000FB6900229A86FB69B3F86020FB69B3F8AA
:1042D0004C30934228BF13467B827B8A5B089AB29C
:1042E000FB69A3F84E20FB69B3F84E301A46FB6910
:1042F000DB8E5B009A4206DAFB69DB8E5B009AB2CA
:10430000FB69A3F84E20FB69DA8EFB69A3F84C2009
:10431000F86903F047F9FB691B7E062B0FD1FB6997
:104320009B7F03F01003002B09D0184B1A68FB6920
:104330005B6AD31A282B02D9FB7D0133FB75FB691D
:104340001B7A03F00803002B4DD0FB691B7E042B66
:1043500003D0FB691B7E072B45D10C4B1A68FB6908
:104360005B6AD21AFB69D3F8903003F5242303F675
:10437000B8430B49A1FB03135B099A4212D9FB7D99
:104380000133FB75BB7D0133BB752CE01897002012
:104390005974002014970020E8900008D890000875
:1043A000D34D6210884B1A68FB695B6AD21AFB69AD
:1043B000D3F89010FB6993F896301846834B03FBB3
:1043C00000F30B448249A1FB03135B099A420AD90B
:1043D000F86903F0B3F9FB6993F896300133DAB268
:1043E000FB6983F89620FB695B6F002B16D0764B38
:1043F0001A68FB695B6AD11AFB69B3F844301AB2D8
:1044000013465B0013445B00994207D3FB695B6F63
:10441000184600F09DF9FB6900225A67FB691B7E74
:10442000032B09D1684B1A68FB695B6AD31A282BE6
:1044300002D9FB7D0133FB75FB691B7E092B09D17A
:10444000614B1A68FB695B6AD31AF02B02D9FB7DBA
:104450000133FB75FB7D002B43D0F86900F0F4FAC3
:10446000BB69002B04D0FB69DA68BB69DA6003E042
:10447000FB69DB68574A1360BB7D002B10D0FB69DA
:10448000186DFB69996AFD69FB691C1DFB695A8BF4
:10449000FB699B8B009201932A46234603F01EF88A
:1044A000FB69D3F88C30FB60FB691B69BB60FB695F
:1044B0007B60FB69DB68FB6102207968FEF7CCFE5C
:1044C000454B00221A70FB68002B04D0FB68B868CB
:1044D0006FF009019847404B1B78002B00D05DE638
:1044E00035E0FB69BB61FB69DB68FB61BB69DB7FB6
:1044F0000133DAB2BB69DA77BB69DA7FBB6993F85B
:1045000020309A4223D3BB690022DA77324B002253
:104510001A70BB69D3F88830002B0AD0BB69D3F876
:104520008830BA6912691046B969984703467B75A5
:1045300001E000237B75284B1B78002B00D02DE673
:1045400097F91530002B02D1B86902F0C5FDFB695F
:10455000002B7FF429AE0023BB61204B1B68FB615D
:104560002CE00023FB75184B1A68FB695B6AD31AB1
:10457000F02B02D9FB7D0133FB75FB7D002B18D09E
:10458000F86900F061FABB69002B04D0FB69DA68B6
:10459000BB69DA6003E0FB69DB68104A1360FB6902
:1045A0003B60FB69DB68FB6102203968FEF754FE63
:1045B00004E0FB69BB61FB69DB68FB61FB69002B05
:1045C000CFD12037BD46B0BD18970020F824010098
:1045D000D34D6210149700201097002028970020D8
:1045E00080B582B000AF234B1B780133DAB2214B88
:1045F0001A70214B1B687B6036E07B6893F82120A2
:104600001C4B1B789A422FD01A4B1A787B6883F880
:1046100021207B689B7F03F00103002B10D07B6877
:104620009B7F43F00203DAB27B689A77786802F0E6
:1046300053FD7B689B7F23F00303DAB27B689A7794
:104640007B68DB683B607B689B6F002B0AD00B4B61
:1046500000221A70786800F013F8084B1B78002BC2
:1046600000D0C6E73B687B607B68002BC5D108376C
:10467000BD4680BD5974002014970020109700207B
:1046800090B585B000AF78607B689B6F5B7BBB7338
:104690007B689B6FBB607B6800229A677B68D3F85E
:1046A0008030002B0CD07B68D3F880407B681B697E
:1046B00018467968BA680023A0470346FB7307E0F1
:1046C00000207968BA68002300F08AF80346FB737B
:1046D00097F90F30002B2BD1BB7B03F02003002B6D
:1046E00030D07B689B8D40F66832934205D07B6862
:1046F0009B8D01339AB27B689A857B68D3F88030B2
:10470000002B0CD07B68D3F880407B681B6918466F
:10471000796800220023A0470346FB7301E00023D1
:10472000FB7397F90F3013F10A0F0BD1F6230AE050
:1047300097F90F3013F10A0F01D1F62303E07B68DC
:10474000BA689A6700235BB218461437BD4690BD1D
:1047500080B584B000AF786007E07B681B68FB60C1
:10476000786800F009F8FB687B607B68002BF4D167
:104770001037BD4680BD00BF80B582B000AF786005
:104780007B68002B0CD07B685B68002B04D07B68B7
:104790005B681846FFF7B6F804207968FEF75CFD01
:1047A0000837BD4680BD00BF80B584B000AF7860DB
:1047B0000420FEF7D7FCF860FB68002B01D1002332
:1047C0000AE0F86879681422FBF7C4FCFB685B68B0
:1047D0001846FFF70BF9FB6818461037BD4680BD39
:1047E00080B584B000AFF860B9607A60FB707B6818
:1047F000002B09D07B681B89B8681946FFF790FC2D
:104800007868FFF77FF808E097F90330002B04D1B0
:10481000B868FFF7B7FB034600E000235BB2184619
:104820001037BD4680BD00BF80B586B000AF0346DF
:10483000FB717F23FB720023FB6000233B61184B5D
:104840001B687B611FE07B695B7EFA799A4217D314
:104850007B695B7EFA7A9A4212D3124B1A687B69A3
:104860005B6AD21AFB689A420AD30E4B1A687B69BC
:104870005B6AD31AFB607B693B617B695B7EFB7281
:104880007B69DB687B617B69002BDCD13B69002B9A
:1048900002D03869FFF7F6FB1837BD4680BD00BF70
:1048A000149700201897002080B584B000AF002333
:1048B0007B600023BB60114B1B68FB6012E0104B58
:1048C0001A68FB685B6AD21A7B689A4207D30C4B62
:1048D0001A68FB685B6AD31A7B60FB68BB60FB6885
:1048E000DB68FB60FB68002BE9D1BB68002B02D0C2
:1048F000B868FFF7C7FB1037BD4680BD289700207A
:104900001897002080B584B000AF0346FB710220E9
:10491000FEF728FCF860FB68002B24D1FFF7C4FFEA
:104920000220FEF71FFCF860FB68002B11D1FB7919
:104930001846FFF779FF0220FEF714FCF860FB68C9
:10494000002B06D03B4BD3F89831013B394AC2F8D3
:104950009831FB68002B06D0364BD3F89831013BD9
:10496000344AC2F89831FB68002B5DD0F86800210A
:10497000982204F0B3FAFB68FA795A76FB6840F69D
:104980006832A3F86620FB680022A3F86820FB6861
:1049900040F668329A85FB6840F66832DA85FB6833
:1049A00000225A72FB68FF229A72FB684FF406726B
:1049B000DA86FB680622A3F84420FB680022A3F8ED
:1049C0004020FB680622A3F84220FB684FF6FF72E6
:1049D0009A86FB680122A3F84C2000F0F3F8B86037
:1049E000FB68BA689A65FB68BA681A65FB68BA68BA
:1049F0009A64FB68BA68DA650F4B1A68FB685A62FA
:104A00000E4B1A78FB6883F82120FB680022DA77C6
:104A1000FB680B4AC3F88020FB680A4AC3F8902061
:104A2000FB68002283F89620FB6818461037BD46C5
:104A300080BD00BFD094002018970020597400203A
:104A4000E147000800DD6D0080B584B000AF7860FC
:104A50007B681B7E002B5CD07B681B7E0A2B58D0AA
:104A60007B681B7E012B54D07B681B7E032B23D1DC
:104A7000294B1B68FB601CE0FB685A8B7B685B8BD7
:104A80009A4213D1FB68002B09D0FB681B68002BEE
:104A900005D07B681A68FB681B689A4206D1FB68E0
:104AA0005B7F013BDAB2FB685A7705E0FB68DB68A5
:104AB000FB60FB68002BDFD17B689B6F002B07D06E
:104AC0007B689B6F1846FEF71DFF7B6800229A6784
:104AD0007B685B6F1846FFF73BFE7B6800225A67D6
:104AE0007B684FF6FF729A867B68DB6E1846FFF78D
:104AF0002FFE7B681B6F1846FFF72AFE7B6800229B
:104B0000DA667B68DA6E7B681A677B680022A3F836
:104B10006A201037BD4680BD1C97002080B582B04A
:104B200000AF786039607B681A683B689A4205D1AB
:104B30007B681B68DA687B681A6019E07B681B6811
:104B40001F4A136010E01E4B1B68DA683B689A42EC
:104B500005D11B4B1B683A68D268DA6008E0184B35
:104B60001B68DB68164A1360154B1B68002BEAD1E3
:104B70003B680022DA603868FFF766FF3B681B7EFF
:104B80000A2B13D03B681B7E012B0FD03B689B7F09
:104B900003F00103002B09D03B689B7F43F0020325
:104BA000DAB23B689A77386802F096FA3B681B7E67
:104BB000012B3B6800221A760837BD4680BD00BF36
:104BC0002097002080B400AF064B1A68064B1B6884
:104BD0001344044A1360034B1B681846BD465DF836
:104BE000047B7047184000201897002080B584B0DF
:104BF00000AF03463960FB803868FDF71FF8F860A6
:104C0000FB68002B0DD0FB681B8C002B09D0FB68C8
:104C10001B8C283B7B817A89FB88934228BF1346F3
:104C2000FB80FB8818461037BD4680BD90B589B023
:104C300002AF786039609C4BD3F8243101339A4A33
:104C4000C2F824317B685B68984A13607B685B68B4
:104C5000964A1268127802F00F0292001344944AA6
:104C60001360924B1B681B789BB203F00F039BB23F
:104C70009B009BB25B429BB29BB21BB27868194609
:104C8000FEF7D0FD0346002B03D17B681B89132B55
:104C900007D8854BD3F834310133834AC2F8343115
:104CA000DAE2844B1B6818463968FDF713FA0346AD
:104CB000002B05D17F4B1B6803F0F003E02B07D1DD
:104CC000794BD3F840310133774AC2F84031C3E21F
:104CD000774B1B689B899BB21846FDF7D9FE0346AC
:104CE0001B0B9BB2BB72BB7A9BB21A469203D31AC0
:104CF0009B009BB29BB21BB278681946FEF792FDEF
:104D00000346002B07D0684BD3F834310133664A91
:104D1000C2F83431A0E2664B1C68654B1B681B88E7
:104D20009BB21846FDF7B4FE03462380604B1C6817
:104D30005F4B1B685B889BB21846FDF7A9FE0346D4
:104D400063805B4B1C685A4B1B685B681846FDF719
:104D5000C7FE034663606368574A1360544B1C6880
:104D6000534B1B689B681846FDF7BAFE0346A360C9
:104D7000A368524A13604E4B1C684D4B1B68DB897D
:104D80009BB21846FDF784FE0346E381484B1B683F
:104D90009B899BB21846FDF77BFE0346DBB203F00E
:104DA0003F03DAB2464B1A707B681A89444B1B7872
:104DB00003F00303002B14BF01230023DBB29BB2DB
:104DC00013449AB23F4B1A8000233B613E4B1B6851
:104DD0007B6130E07B699A8B354B1B681B889BB2EB
:104DE0009A4223D17B695A8B314B1B685B889BB2FB
:104DF0009A421BD17B695A68344B1B689A4215D181
:104E00007B691A682B4B1B689A420FD13B69002BB8
:104E10000BD07B69DA683B69DA602B4B1A687B69D7
:104E2000DA60294A7B69136008E007E07B693B612F
:104E30007B69DB687B617B69002BCBD17B69002BB5
:104E40007FD1234B1B687B6125E07B699A8B184BD4
:104E50001B681B889BB29A421AD17B695A8B144BF0
:104E60001B685B889BB29A4212D17B695A68174BC8
:104E70001B689A420CD17B691A680E4B1B689A42D8
:104E800006D1786900F0EAFA7868FEF73BFDEDE1BB
:104E90007B69DB687B617B69002BD6D100233B619A
:104EA0000C4B1B68FB6031E0D09400207474002030
:104EB00070740020A8740020787400207C74002096
:104EC000807400208274002014970020A0740020B9
:104ED000289700201C970020FB685A8B994B1B6871
:104EE0005B889BB29A420CD1FB681A68964B1B6890
:104EF0009A420ED0FB68002B0BD0FB681B68002B7E
:104F000007D0FB683B61FB68DB68FB60FB68002B3C
:104F1000E2D1FB68002B14D03B69002B0AD0FB6860
:104F2000DA683B69DA60894B1A68FB68DA60874A9D
:104F3000FB681360F86800F0B1F97868FEF7E2FCEE
:104F400094E17B69002B00F05281814B00221A60B2
:104F50007B681A897E4B1A817D4A7B685360794B46
:104F60001B687B4A13617B4B00221A607A4B00223C
:104F70001A707A4B1B7803F00803002B06D07B686D
:104F80005B7B43F00103DAB27B685A737B699B6FEA
:104F9000002B16D07869FFF773FB034613F10A0F55
:104FA00007D07B699B6F002B0BD06D4B1B88002BB0
:104FB00007D06C4BD3F82C3101336A4AC2F82C313C
:104FC00002E1694A7B691360786900F0B3FA03462D
:104FD000FB7297F90B3013F10A0F00F0F5805E4B6E
:104FE0001B7803F00803002B16D07B69D3F88C30B4
:104FF000002B08D07B69D3F88C307A69126910468F
:105000006FF00A01984759487969FFF787FD022038
:105010007969FEF721F9D7E04F4B1B7803F01003B5
:10502000002B1CD07B699B7F03F01003002B0DD15C
:105030007B69D3F88C30002B08D07B69D3F88C3097
:105040007A69126910466FF00B01984747487969F1
:10505000FFF764FD02207969FEF7FEF8B4E0002353
:10506000FB727B69B3F86430002B18D07B69DB6F6F
:10507000002B0CD07B69DB6F7A6911697A69B2F811
:1050800064200846796998470346FB7201E00023D3
:10509000FB7297F90B3013F10A0F00D194E02D4BFE
:1050A0001B68002B3AD07B699B7F03F01003002B19
:1050B00008D0284B1B681846FEF724FC7869FEF7D9
:1050C000E1FF81E07B69D3F88030002B0ED07B6953
:1050D000D3F880407B691A691E4B1B6810467969BA
:1050E0001A460023A0470346FB7209E0194B1B68D0
:1050F000002079691A460023FFF772FB0346FB7212
:1051000097F90B3013F10A0F00D15DE097F90B30DE
:10511000002B03D00F4B1A687B699A670E4B1B78E4
:1051200003F02003002B49D07B699B6F002B1FD01D
:105130007B699B6F7A69926F527B42F02002D2B2F8
:105140005A733BE070740020A87400201C97002064
:105150005C74002088740020847400208074002017
:1051600082740020D09400202C97002014970020F7
:105170007B699B8D40F66832934205D07B699B8D9D
:1051800001339AB27B699A857B69D3F88030002B12
:105190000CD07B69D3F880407B691B69184679691C
:1051A00000220023A0470346FB7201E00023FB72AC
:1051B00097F90B3013F10A0F00D105E02D4B0022B7
:1051C0001A60786901F088FF2A4B00221A602A4B86
:1051D00000221A60294B5B68002B3CD0274B5B6890
:1051E0001846FEF78FFB254B00225A6033E0244B14
:1051F0001B689B899BB21846FDF74AFC034603F0E7
:105200000403002B23D11F4BD3F8403101331D4A37
:10521000C2F840311B4BD3F82C310133194AC2F884
:105220002C31194B1868194B1B881A46184B1B68F0
:10523000D118134B1B685B889AB2114B1B681B88F3
:105240009BB200920193134A134B02F047F978681E
:10525000FEF758FB0AE009E00A4BD3F82C31013382
:10526000084AC2F82C317868FEF74CFB1C37BD4663
:1052700090BD00BF2C970020887400205C74002033
:1052800070740020D09400207C7400208274002070
:1052900078740020A8740020A074002080B586B027
:1052A00002AF7860634B1B7803F00403002B01D03E
:1052B0000023BAE05F4B1B7803F01003002B16D0DD
:1052C0005D4B18685D4B1B881A465D4B1B68D118F7
:1052D0005C4B1B685B889AB25A4B1B681B889BB25D
:1052E00000920193584A594B02F0F8F89CE0514B58
:1052F0001B7803F00203002B00F096807B685A7F36
:105300007B681B7F9A4201D3F6238EE07B685B7E2D
:105310001846FFF7F7FAF860FB68002B08D14C4BF2
:10532000D3F8383101334A4AC2F83831FF237CE0E0
:105330007B685B7F0133DAB27B685A77424B1A682D
:10534000FB681A607B685A8BFB685A833F4B1A686C
:10535000FB685A603B4B1B681B889AB2FB689A83B8
:10536000FB6803221A76364B1B685A1CFB689A624C
:10537000FB689A6AFB681A63324B1B68DB899AB236
:10538000FB68A3F860202F4B1B68DB899AB2FB688F
:10539000A3F86220FB68B3F86020FB68A3F84E20F6
:1053A000274B1B685A1EFB685A657B681A69FB68A5
:1053B0001A617B685A69FB685A617B681B7A23F023
:1053C0007303DAB2FB681A72224B1A68FB68DA6060
:1053D000204AFB68136002F087FA1F4B01221A7003
:1053E000F86801F0A3FBFB68DA8EFB680433104613
:1053F0001946FFF7FBFB03461A46FB68DA86F86896
:10540000122101F04BFD0346FB7297F90B30002B84
:1054100005D0F8680021FEF7CDFDFB7A05E0F868BD
:1054200001F05AFE034600E000235BB21846103735
:10543000BD4680BD807400207C74002082740020F2
:105440007874002070740020A8740020A0740020DC
:10545000D0940020149700201097002080B584B0CD
:1054600002AF78602B4B1B7803F00403002B01D0B4
:10547000002349E0274B1B7803F00203002B28D0C0
:10548000254B1A687B689B6AD31A002B2BDB224BB7
:105490001A687B689B6A7968898D0B44D31A002B44
:1054A00021DC1E4B18681E4B1B881A461A4B1B68C2
:1054B000D1181C4B1B685B889AB21A4B1B681B885F
:1054C0009BB200920193184A184B02F007F8002390
:1054D0001AE0104B1B7803F00103002B03D0144B90
:1054E0001A687B685A620E4B1B88002B0BD07B68B6
:1054F0009B7F43F00203DAB27B689A77786801F009
:10550000EBFD034600E000235BB218460837BD46BA
:1055100080BD00BF80740020787400207C7400205F
:105520008274002070740020A8740020A0740020F1
:105530001897002080B588B002AF78600023FB7513
:105540000023BB75A44B1B7803F00403002B34D05D
:105550007B681B7E022B08D17B681A6D9F4B1B68F2
:105560009A4215D10123FB7512E09D4B1A687B68A6
:105570009B6AD31A002B0BDB994B1A687B689B6ADA
:105580007968898D0B44D31A002B01DC0123FB754C
:10559000FB7D002B0FD0934B1B7843F00803DAB24E
:1055A000904B1A707B689B7F23F00103DAB27B6813
:1055B0009A77F52307E3002305E3874B1B7803F075
:1055C0000203002B10D07B681B7E022B0CD07B6863
:1055D0001B7E032B08D07B689B7F43F00203DAB26B
:1055E0007B689A770023EEE27B689B7F03F01003D1
:1055F000002B03D17C4B1A687B685A627B680022BF
:1056000083F89620786801F091FA7B681B7E023B54
:10561000072B00F2D68201A252F823F03D56000873
:10562000FD570008255900084F590008355A000851
:1056300025590008FD5A0008935B0008664B1B784B
:1056400003F01003002B00F0A980634B1B7803F0DC
:105650000203002B00F0A2807B681B6F1B695B6854
:105660001846FDF73DFA03465A1C5C4B1B689A42EC
:1056700040F094807B68B3F8663001339AB27B685F
:10568000A3F86620564B1B685A1C7B689A627B689D
:105690009A6A7B681A63514B1A687B689A64534B09
:1056A0001B68DB899AB27B68A3F860204F4B1B68AC
:1056B000DB899AB27B68A3F86220494B1B685A1EAB
:1056C0007B685A657B6804221A767B68DA8E7B6871
:1056D000043310461946FFF789FA03461A467B68D9
:1056E000DA867B68DB8E1A46920013445B009AB21E
:1056F0007B68A3F84E207B68B3F84C30012B04D1B3
:105700007B68DB8E5B009BB201E07B68DB8E7A6896
:10571000A2F84C307B68B3F86830013B9AB27B68E2
:10572000A3F868207B681B6F3B613B691A687B6844
:105730001A673869FFF720F87B681B6F002B04D1CC
:105740007B684FF6FF729A8606E07B6800229A8695
:105750007B68002283F846207B68D3F88430002BD6
:105760000BD07B68D3F884307A6812691046796868
:10577000002298470346BB7501E00023BB7597F9EB
:10578000163013F10A0F01D1F6231CE27B689B7FD0
:1057900043F00203DAB27B689A771CE00E4B1B7869
:1057A00003F01003002B16D00C4B1868104B1B880D
:1057B0001A460B4B1B68D1180C4B1B685B889AB2BE
:1057C0000A4B1B681B889BB200920193094A0A4B43
:1057D00001F084FEF6E1F5E1807400207C74002085
:1057E00078740020847400201897002070740020C2
:1057F00082740020A8740020A07400209C4B1B78A9
:1058000003F01003002B7BD09A4B1A687B689B6CCB
:10581000D31A013B002B5BDB964B1A687B681B6D30
:10582000D31A002B54DC7B6804221A767B685B69F0
:10583000002B0AD07B685B697A6812691046796828
:10584000002298470346BB7501E0F223BB7597F928
:105850001630002B09D097F9163013F10A0F02D039
:105860007868FEF70FFCF623ADE17B68B3F84C30A7
:10587000FB81786800F030FA7B68B3F86430002B65
:1058800007D07B68B3F86430013B9AB27B68A3F819
:105890006420FB89012B04D17B68DB8E5B009BB20B
:1058A00001E07B68DB8E7A68A2F84C30724B1B7883
:1058B00003F02003002B0AD07B689B7F43F0020398
:1058C000DAB27B689A777B6807221A7617E016E0CF
:1058D000684B1868694B1B881A46694B1B68D118BE
:1058E000684B1B685B889AB2664B1B681B889BB22F
:1058F00000920193644A654B01F0F0FD11E010E065
:105900005B4B1B7803F00203002B0AD07B689B6A79
:105910005A1E5B4B1B689A4203D1786801F072FEF5
:1059200050E14FE1786800F0D7F9534B1B7803F052
:105930002003002B0AD07B689B7F43F00203DAB27E
:105940007B689A777B6807221A763BE13AE17868B0
:1059500000F0C2F9484B1B7803F02003002B58D00D
:10596000434B1B7803F01003002B47D07B681A6D64
:10597000404B1B689A4241D17B689B7F43F00203F6
:10598000DAB27B689A777868FFF75EF8404B1A685E
:105990007B689A4205D13E4B1B68DB683C4A13602A
:1059A00019E03B4B1B683B4A136010E0394B1B6806
:1059B000DA687B689A4205D1364B1B687A68D268F0
:1059C000DA6008E0334B1B68DB68324A1360314B06
:1059D0001B68002BEAD17B680022DA602E4B012283
:1059E0001A707B680A221A762C4B1A687B68DA6078
:1059F0002A4A7B68136001F077FF1AE07B689B7F7F
:105A000043F00203DAB27B689A777B6808221A7641
:105A10000FE0174B1B7803F01003002B09D07B68B5
:105A20001A6D144B1B689A4203D17B6806221A76C2
:105A3000C8E0C7E0786800F04FF90F4B1B7803F01F
:105A40002003002B59D07B689B7F43F00203DAB21E
:105A50007B689A777868FEF7F7FF0D4B1A687B68CA
:105A60009A421DD10A4B1B68DB68094A136031E07A
:105A7000807400207C7400208474002082740020D4
:105A80007874002070740020A8740020A074002096
:105A900014970020209700201097002028970020BE
:105AA0004B4B1B684B4A136010E04A4B1B68DA688B
:105AB0007B689A4205D1474B1B687A68D268DA60E6
:105AC00008E0444B1B68DB68424A1360414B1B688B
:105AD000002BEAD17B680022DA603F4B01221A706A
